:020000040000FA
:100000000C946E000C9496000C9496000C94960040
:100010000C9496000C9496000C9496000C94FE0E92
:100020000C9417110C9496000C9496000C94960066
:100030000C9496000C9496000C9496000C949600E8
:100040000C94B20F0C9496000C94800F0C945A0FE1
:100050000C9496000C9496000C9496000C949600C8
:100060000C94FC0F0C949600000000002400270064
:100070002A0000000008000201000003040700003D
:10008000000000000000556E206261646765206515
:1000900073742064C3A974656374C3A9000000006D
:1000A00000250028002B000200000000230026008D
:1000B00029000404040404040404020202020202EB
:1000C000030303030303010204081020408001021C
:1000D00004081020010204081020171211241FBE6A
:1000E000CFEFD8E0DEBFCDBF12E0A0E0B1E0E0E9A5
:1000F000FCE302C005900D92AA3CB107D9F725E0B8
:10010000AAECB2E001C01D92A736B207E1F710E0F9
:10011000CEE6D0E004C02197FE010E94401ECD36FD
:10012000D107C9F70E94BB120C94461E0C94000024
:10013000E0915A05F0915B0523853485281739072E
:1001400028F48091560581608093560508950F9399
:100150001F93CF93DF93409162038091570510E086
:10016000481708F068C0142F117000916103011145
:1001700053C0E0915A05F0915B05842F90E0880F01
:10018000991FE80FF91F0384F485E02D2CEE3FEF53
:10019000112311F024E130E0C0915F03D09160039E
:1001A0002C0F3D1FC90163E470E00E94181EE61782
:1001B000F70760F0C90168E270E00E94181E6F5FE7
:1001C0007F4F81E090E06E177F0710F52C0F3D1FE9
:1001D000C90163E470E00E94181EE617F70750F0AB
:1001E000C90168E270E00E94181E6F5F7F4F6E17B2
:1001F0007F0760F42C0F3D1FC90163E470E00E948B
:10020000181EE617F707E8F41FEF15C082E090E02C
:1002100090935E0380935D030F5F00936103809171
:100220005D0390915E030817190628F01092610390
:100230004F5F40936203812FDF91CF911F910F9108
:100240000895C90168E270E00E94181E6F5F7F4F39
:100250006E177F07C8F283E090E0DACF8CBD9DBDBA
:100260000895AF92BF92CF92DF92EF92FF920F93D9
:100270001F93CF93DF936C017B018B01040F151F3C
:10028000EB015E01AE18BF08C017D10759F06991A4
:10029000D601ED91FC910190F081E02DC601099508
:1002A000892B79F7C501DF91CF911F910F91FF90B5
:1002B000EF90DF90CF90BF90AF900895FC01538DE9
:1002C000448D252F30E0842F90E0821B930B541730
:1002D00010F0CF96089501970895FC01918D828DBD
:1002E000981761F0A28DAE0FBF2FB11D5D968C9156
:1002F000928D9F5F9F73928F90E008958FEF9FEF95
:100300000895FC01918D828D981731F0828DE80F50
:10031000F11D858D90E008958FEF9FEF0895FC010A
:10032000918D228D892F90E0805C9F4F821B9109D7
:100330008F739927089583E693E00E948F0121E04F
:10034000892B09F420E0822F089580E090E0892B2A
:1003500029F00E949B0181110C9400000895FC017A
:10036000A48DA80FB92FB11DA35ABF4F2C91848D16
:1003700090E001968F739927848FA689B7892C9373
:10038000A089B1898C91837080648C93938D848DC6
:10039000981306C00288F389E02D80818F7D8083C9
:1003A0000895EF92FF920F931F93CF93DF93EC0189
:1003B00081E0888F9B8D8C8D98131AC0E889F9890C
:1003C000808185FF15C09FB7F894EE89FF8960830F
:1003D000E889F98980818370806480839FBF81E090
:1003E00090E0DF91CF911F910F91FF90EF900895D2
:1003F000F62E0B8D10E00F5F1F4F0F731127E02EAD
:100400008C8D8E110CC00FB607FCFACFE889F989E4
:10041000808185FFF5CFCE010E94AF01F1CFEB8D3A
:10042000EC0FFD2FF11DE35AFF4FF0829FB7F894B8
:100430000B8FEA89FB8980818062CFCFCF93DF93D6
:10044000EC01888D8823B9F0AA89BB89E889F989EC
:100450008C9185FD03C0808186FD0DC00FB607FC21
:10046000F7CF8C9185FFF2CF808185FFEDCFCE0154
:100470000E94AF01E9CFDF91CF910895833081F0E1
:1004800028F4813099F08230A9F008958730A9F0DE
:100490008830C9F08430B1F4809180008F7D03C032
:1004A000809180008F7780938000089584B58F7746
:1004B00084BD089584B58F7DFBCF8091B0008F7788
:1004C0008093B00008958091B0008F7DF9CF1F9385
:1004D000CF93DF93282F30E0F901EE58FF4F84913E
:1004E000F901EA53FF4FD491F901EE54FF4FC49143
:1004F000CC23A9F0162F81110E943E02EC2FF0E0D0
:10050000EE0FFF1FE356FF4FA591B4918FB7F894FC
:10051000EC91111108C0D095DE23DC938FBFDF91E1
:10052000CF911F910895DE2BF8CFCF93DF93EC018D
:100530008091030590910405029749F4C130D105DB
:1005400009F43BC06CF560E0209709F437C0809156
:10055000030590910405049749F4C130D10509F4CD
:100560005CC00CF037C0209709F442C080910305AD
:1005700090910405059709F0E5C0CA30D10508F04F
:10058000E1C0FE01EA53FD4F0C94401E25033103E8
:1005900042035803730375037C0388039903A00384
:1005A000C230D105A9F060E0C330D10581F6809159
:1005B00007050E94670260E006C061E080910705C0
:1005C0000E94670261E0809109050E946702BFCF27
:1005D00061E0EDCFC230D10539F1C330D10509F06A
:1005E000C5CF61E0809107050E94670260E022C0EC
:1005F00061E0809107050E94670260E08091090533
:100600000E94670261E080910B050E94670260E032
:1006100080910D050E946702A9CF60E080910705D7
:100620000E94670261E0EACF60E0809107050E94C6
:10063000670261E0809109050E94670260E0809195
:100640000B050E94670261E0E3CF60E0809107053F
:100650000E94670261E0809109050E94670261E0E3
:100660000BC060E0809107050E94670261E0809105
:1006700009050E94670260E080910B050E946702F5
:1006800060E010C060E0809107050E94670261E0B1
:10069000809109050E94670260E080910B050E942D
:1006A000670261E080910D050E94670261E015C05C
:1006B00060E0809107050E94670261E08091090572
:1006C0000E94670260E080910B050E94670261E072
:1006D00080910D050E94670260E080910F05DF9117
:1006E000CF910C94670261E0E4CF61E0809107054F
:1006F0000E94670260E0E2CF61E0809107050E94FE
:10070000670260E0809109050E94670261E0DBCF2B
:1007100061E0809107050E94670260E08091090511
:100720000E94670261E080910B050E94670260E011
:10073000CFCF61E0809107050E94670260E08BCF18
:1007400060E0F8CFDF91CF9108959091F401891383
:100750000BC0E7EAF0E0E4919FEF9093F401E13001
:1007600049F028F0E23061F060E00C9467021092EA
:100770006E00FACF90916F009D7F90936F00F4CF41
:10078000909170009D7F9093700091E09093B000E5
:100790009091B100987F94609093B1001092B30053
:1007A000E3CFCF93DF9390E0FC01EA53FF4F249116
:1007B0008E549F4FFC0184918823D1F090E0880FE4
:1007C000991FFC01E859FF4FA591B491FC01E35634
:1007D000FF4FC591D49161110EC09FB7F8948C91D1
:1007E000E22FE0958E238C932881E223E8839FBF3C
:1007F000DF91CF9108958FB7F894EC91E22BEC93B1
:100800008FBFF6CFCF92DF92EF92FF920F931F939D
:10081000CF938C018091F401803151F08F3FC1F171
:10082000CF911F910F91FF90EF90DF90CF9008959F
:10083000E7EAF0E0C491C7FDF3CF61E080E10E94F8
:10084000D103C1113BC0980150E040E068E478EE6C
:1008500081E090E00E94DF1DBA01A90141505109D9
:100860006109710985B5887F836085BD47BD8FEFBC
:100870009FEFDC018093590390935A03A0935B038D
:10088000B0935C0380916E00826080936E00C8CF4D
:1008900080E18093F401E7EAF0E0C491CF3F09F4EE
:1008A000BFCFC13009F44EC0A0F1C23009F468C016
:1008B000C7FDB6CF61E080E10E94D103980150E00E
:1008C00040E0C23009F07EC060E970ED83E090E066
:1008D0000E94DF1DBA01A901415051096109710946
:1008E0008091B100887F83608093B1004093B30012
:1008F0008FEF9FEFDC018093510390935203A093FD
:100900005303B09354038091700082608093700011
:1009100087CF14BC15BC84B5826084BD85B5816069
:1009200085BDE2ECF0E0E491F0E0EE0FFF1FE3564E
:10093000FF4F85919491E6EDF0E0E491E093500350
:10094000C0E07BCF109280001092810080918100E6
:100950008860809381008091810081608093810014
:10096000E2ECF0E0E491F0E0EE0FFF1FE356FF4F02
:1009700085919491E6EDF0E0E491E0934F035DCF33
:100980001092B0001092B1008091B000826080930C
:10099000B0008091B10081608093B100E2ECF0E0A2
:1009A000E491F0E0EE0FFF1FE356FF4F8591949125
:1009B00090934E0380934D03E6EDF0E0E491E093D5
:1009C0004C033BCF60E072E18AE790E00E94DF1DBC
:1009D00069017A0181E0C81AD108E108F108A6018D
:1009E000C130D9F480918100887F8160809381003B
:1009F000D0928900C09288008FEF9FEFDC01809336
:100A0000550390935603A0935703B09358038091D6
:100A10006F00826080936F0003CFC23009F466CF0D
:100A2000C111FECE23CF3FB7F89480913C03909143
:100A30003D03A0913E03B0913F0326B5A89B05C09E
:100A40002F3F19F00196A11DB11D3FBFBA2FA92F4D
:100A5000982F8827BC01CD01620F711D811D911D4A
:100A600042E0660F771F881F991F4A95D1F70895B6
:100A7000CF92DF92EF92FF920F931F9381309105F7
:100A800009F05DC09093FC048093FB040E94130561
:100A90000091110510911205209113053091140554
:100AA0006B017C01C01AD10AE20AF30A0091FD042D
:100AB0001091FE042091FF0430910005C016D1066C
:100AC000E206F30618F36093110570931205809304
:100AD00013059093140580910505909106052091CA
:100AE000FB043091FC042130310581F5019690938F
:100AF00006058093050520910105309102058217B6
:100B0000930721F4109206051092050580910505C2
:100B10009091060520910305309104056AE070E08C
:100B20002530310511F064E070E00E942C1E1F9109
:100B30000F91FF90EF90DF90CF900C94950201966B
:100B4000C9F41092FC041092FB04A0CF892B41F44D
:100B5000809101059091020590930605809305050B
:100B60008091050590910605019790930605809365
:100B70000505CCCF1F910F91FF90EF90DF90CF90A4
:100B800008958F929F92AF92BF92CF92DF92EF9291
:100B9000FF92CF93DF93C8E8D3E1812C87E8982EAA
:100BA00083E9A82E83E0B82E9DEDC92EDD24D394D1
:100BB000E12CF12C2091010530910205032E000C4F
:100BC000440B550BC501B4010E94DF1DCA01B901D8
:100BD000A70196010E94DF1D2093FD043093FE04BF
:100BE0004093FF04509300058FEF9FEF0E9438055C
:100BF00061E086E00E9467022197E1F6DF91CF91E4
:100C0000FF90EF90DF90CF90BF90AF909F908F902C
:100C100008958F929F92AF92BF92CF92DF92EF9200
:100C2000FF92CF93DF93C8E8D3E1812C87E8982E19
:100C300083E9A82E83E0B82E9DEDC92EDD24D39440
:100C4000E12CF12C2091010530910205032E000CBE
:100C5000440B550BC501B4010E94DF1DCA01B90147
:100C6000A70196010E94DF1D2093FD043093FE042E
:100C70004093FF045093000581E090E00E94380506
:100C800061E086E00E9467022197E1F6DF91CF9153
:100C9000FF90EF90DF90CF90BF90AF909F908F909C
:100CA00008958F929F92AF92BF92CF92DF92EF9270
:100CB000FF924B015C010E9413056B017C010E94B5
:100CC00013056C197D098E099F09683E73408105E3
:100CD0009105A8F321E0821A9108A108B10888EED5
:100CE000C80E83E0D81EE11CF11C81149104A104FC
:100CF000B10429F7FF90EF90DF90CF90BF90AF90B5
:100D00009F908F900895BC016E5F7F4FDC01ED9145
:100D1000FC910190F081E02D40E0099591E0811176
:100D200090E0892F089508958EBD00000DB407FE50
:100D3000FDCF8EB50895DF92EF92FF920F931F9330
:100D4000CF93DF937C01062FD42E152F80E590E002
:100D50000E942E0160E0F70186850E94670282E111
:100D60000E949406CD2DD12F0C0F1D2F111DC017E1
:100D7000D10721F089910E949406F9CF61E0F70133
:100D80008685DF91CF911F910F91FF90EF90DF90BB
:100D90000C9467021F93CF93DF93EC01162F80E52D
:100DA00090E00E942E0160E08E850E946702812FF4
:100DB00080680E94940680E00E949406182F61E0EB
:100DC0008E850E946702812FDF91CF911F91089538
:100DD0000F931F93CF93DF93EC01062F142F80E521
:100DE00090E00E942E0160E08E850E946702802FB5
:100DF0000E949406812F0E94940661E08E85DF9107
:100E0000CF911F910F910C946702CF92DF92EF92D6
:100E1000FF920F931F93CF93DF93EC016B01F42E9E
:100E2000890140E062E00E94E80644E06AE0CE0109
:100E30000E94E80640E864E1CE010E94E806A601AF
:100E40006F2DCE010E949B0643E062E0CE010E941E
:100E5000E8068FB7F894C0904803D0904903E0901B
:100E60004A03F0904B038FBF89E5C80ED11CE11CEB
:100E7000F11C6AE0CE010E94CA0682FF1BC040E05E
:100E800062E0CE010E94E80664E4CE010E94CA0638
:100E9000F801808362E4CE010E94CA06F8018183D2
:100EA00080E0DF91CF911F910F91FF90EF90DF9045
:100EB000CF9008952FB7F8948091480390914903FB
:100EC000A0914A03B0914B032FBF8C159D05AE0531
:100ED000BF0578F283E0E5CF2F923F924F925F9269
:100EE0006F927F928F929F92AF92CF92DF92EF920A
:100EF000FF920F931F93CF93DF9300D0CDB7DEB750
:100F00004C012B01D42E390180E0E114F10411F0E1
:100F1000F70180813C2C329490EF3922380E40E06A
:100F200062E0C4010E94E8064FE768E0C4010E9445
:100F3000E80640E864E1C4010E94E806A2016D2DC4
:100F4000C4010E949B06432D6AE1C4010E94E80689
:100F50004CE062E0C4010E94E8066AE1C4010E941C
:100F6000CA06482F40686AE1C4010E94E8068FB7AC
:100F7000F894209048033090490340904A035090E1
:100F80004B038FBFF4E22F0E311C411C511C68E053
:100F9000C4010E94CA06982F907309F0C0C080FF58
:100FA00015C083E00F900F90DF91CF911F910F91AB
:100FB000FF90EF90DF90CF90AF909F908F907F90B9
:100FC0006F905F904F903F902F9008952FB7F894B7
:100FD0008091480390914903A0914A03B0914B033B
:100FE0002FBF82159305A405B50588F2DACF6114E9
:100FF000710409F469C00115110509F465C064E1C3
:10100000C4010E94CA06382EF8018081831508F4B5
:1010100080C030823320E1F180E590E00E942E0113
:1010200060E0F40186850E9467023A9482E90E949A
:101030009406CC20B1F08FEF90E09C0102C0220F0B
:10104000331FCA94E2F7690182E90E9494069C2D3D
:101050009095F301208192238C21982B9083CC24AE
:10106000C39423014C0C511CC31440F482E90E9428
:101070009406F20181932F01C394F6CF80E00E9481
:101080009406F201808361E0F40186850E94670284
:1010900068E1C4010E94CA068770E114F10411F0EE
:1010A000F701808323FC37C061147104B1F101158D
:1010B000110599F1AA2089F1F8014081413031F4FC
:1010C000843029F58FEF6ECF80E0ECCF4230F8F01E
:1010D00081111DC042509E012F5F3F4FB301C401DB
:1010E0000E94050781115ECFF8019081690E711C85
:1010F000F301329720819981291309C0F1E06F1A19
:101100007108F30120819A81291709F44BCF87E0F8
:1011100049CF84E047CF82E045CF80E043CF6CE009
:10112000C4010E94CA06282E837109F460CF81E0B1
:1011300039CF8F929F92AF92CF92EF92FF920F93FF
:101140001F93CF93DF9300D000D01F92CDB7DEB7AF
:101150004C0182E08D8340E064E2C4010E94E80615
:1011600040E066E2C4010E94E80646E268E4C40189
:101170000E94E80686E28B838D818230D8F16CE193
:10118000C4010E94CA06482F4F776CE1C4010E9437
:10119000E80687E08C83A12CC12CCE0104967C014B
:1011A0008E010B5F1F4F9E012F5F3F4F41E0BE013D
:1011B0006D5F7F4FC4010E946C07982F811117C08B
:1011C0008D818230B9F48C81811114C081E00F903F
:1011D0000F900F900F900F90DF91CF911F910F9173
:1011E000FF90EF90CF90AF909F908F90089581E007
:1011F000923069F380E0EBCF2F923F924F925F9253
:101200006F927F928F929F92AF92BF92CF92DF9216
:10121000EF92FF920F931F93CF93DF93CDB7DEB77B
:101220002D970FB6F894DEBF0FBECDBF16E0413547
:1012300008F04AC1342E3B014C016CE10E94CA0601
:10124000482F4F776CE1C4010E94E80683E9898347
:10125000332029F081E0F3019081953008F480E09B
:1012600022242394B12C9B2D990F990F990FD32CE5
:10127000D91AD7FCD12C32E0882319F098E89B8347
:1012800033E021E09D2D977009F420E09D2D959588
:1012900095959595290FC9F094E0811193E0291750
:1012A00008F4922FEB2DF0E03196E60DF71D232F79
:1012B0004191A1E0B0E0AC0FBD1FA20FB11D4C9356
:1012C0002F5F422F431B491798F3882311F0F8E052
:1012D000DF0E8FE18D150CF082C090E79A838B8131
:1012E0009C8189279D8189279E8189278F839E01E3
:1012F000285F3F4F47E0BE016F5F7F4FC4010E94F0
:101300000507182F8111E0C01A86E3E0EB87DC8621
:10131000CE0107962C0199E09D87CA844C2D4295F9
:10132000407F4C0D6AE1C4010E94E806A12CCE0169
:101330000A967C018E01055F1F4F92014D85BE010B
:101340006F5F7F4FC4010E946C07182F823009F035
:1013500065C06CE1C4010E94CA0685FDB5C08F71ED
:1013600009F480E2282F30E04D2DDD0C550B42179B
:1013700053070CF09DC0D82EE82FE595E595E5952F
:10138000EF5F982F977081E009F480E0E80F81E02B
:1013900090E08C0F9D1F8E0F911DFC012150310993
:1013A0002770332781E090E002C0880F991F2A95AB
:1013B000E2F79C018081822B80838BCF85E9898332
:1013C000332031F081E0F3019081983008F04BCF69
:1013D00080E049CF87E9898326E0B22EF9CF9D2DA1
:1013E00097709A878D2D8595859585958E5F282F89
:1013F0002295207F290F2A8321E0911101C020E04E
:10140000280F2D8744244394512C4C0E5D1E480E0A
:10141000511CE9E0E81BEB87DC867FCF811154C0CB
:1014200080E2D82E9C8590320CF457CF8B8188387F
:1014300009F040C083E093E0EB2DF0E03196E60D3B
:10144000F71D980FA1E0B0E0AC0FBD1FA80FB11DB4
:101450002C9121938F5F8913F5CFBB84E3E0BE12FB
:101460004DC08A8581114AC09E012D5F3F4F41E0EA
:10147000B201C4010E940507182F811125C09B816C
:10148000F201818198133CC09C818281981338C0FD
:10149000808182FF12C02394F2E02F1609F48ECFD0
:1014A00083E0281609F496CF91E0291609F4CECEF0
:1014B00015E00AC082E094E0BFCFF3018387822D5C
:1014C000880F820D8F5F8083812F2D960FB6F89441
:1014D000DEBF0FBECDBFDF91CF911F910F91FF9067
:1014E000EF90DF90CF90BF90AF909F908F907F90C4
:1014F0006F905F904F903F902F90089511E0E4CF50
:1015000017E0E2CF2091F102260F3327331F21325B
:101510003105ECF420911503FC0190E080E02430CB
:1015200069F082E00895A091F1022191AC014F523F
:101530005D4FA40FB52FB11D2C930196861798F31C
:101540008091F102680F6093F10280E0089581E0DC
:10155000089508958FEF9FEF08958FEF9FEF0895FF
:101560008091CA0290E09195819591090895CF9359
:10157000DF93CB01EA01642F0E94820ACE01DF9142
:10158000CF910895CF93DF931F92CDB7DEB76983D4
:1015900061E0CE0101960E94820A81E090E00F9006
:1015A000DF91CF910895089590E080E00895FC01C7
:1015B0009B0124513109C90163E470E00E94181EA7
:1015C000E617F70758F0C90168E270E00E94181E9C
:1015D0006F5F7F4F81E06E177F0708F480E008950A
:1015E0002F923F924F925F926F927F928F929F9233
:1015F000AF92BF92CF92DF92EF92FF920F931F9321
:10160000CF93DF9300D000D000D0CDB7DEB7382E17
:101610006D835A013C832B8348012E2C9A012C5E4A
:101620003F4FC90163E470E00E94181E8B01C9019D
:1016300068E270E00E94181E9B012F5F3F4F3A83C3
:1016400029835D81452F50E0440F551F455F5F4F53
:1016500080915A0590915B05480F591F5E834D8319
:10166000412C512C32014394C12CD12C76013320D2
:10167000B9F18B819C81A816B906E1F4B401ED8122
:10168000FE81828193810E94D70A222011F1CC0C25
:10169000DD1CEE1CFF1C882311F06894C0F8440C7C
:1016A000551C661C771C3A948D819E8104969E83FE
:1016B0008D83DDCFED81FE812081318120173107BF
:1016C00030F081E049815A8142175307F0F680E0FB
:1016D000DCCF882321F3C428D528E628F728DFCFDC
:1016E000C0923C05D0923D05E0923E05F0923F0548
:1016F00081E026960FB6F894DEBF0FBECDBFDF9116
:10170000CF911F910F91FF90EF90DF90CF90BF90FE
:10171000AF909F908F907F906F905F904F903F9091
:101720002F900895EF920F931F93FC01862F642F43
:10173000EE24E3949785911101C0E12C0185128577
:1017400023853485478150850E94F00A1F910F91AF
:10175000EF9008950F931F93CF93DF93EC01E091E7
:101760005A05F0915B05058516852B813C812C5E21
:101770003F4FC90163E470E00E94181E0617170767
:10178000A0F0C90168E270E00E94181E6F5F7F4FF1
:101790006017710750F06D817E8187859089DF9198
:1017A000CF911F910F910C94D70A80E0DF91CF91D8
:1017B0001F910F91089580912D05882319F060E005
:1017C0000C9467022D980895882349F080912D0587
:1017D000882319F061E00C9467022D9A08950C9407
:1017E000DB0B4F925F926F927F928F929F92AF929C
:1017F000BF92CF92DF92EF92FF92CF93DF93CDB75C
:10180000DEB72D970FB6F894DEBF0FBECDBF7C01BB
:101810000E94130569837A838B839C834B015C014F
:101820001D86B0E0A0E09701AD01255231094109C4
:1018300051092D833E834F8358879701AD0127506F
:1018400031094109510929873A874B875C87F89408
:1018500061E080912F050E9467028091320590918E
:1018600033058230910538F0880F991F880F991F32
:1018700005970197F1F760E080912F050E946702BC
:1018800078943D85311107C080912E05823019F47E
:1018900081E00E94E40B8091300590913105880E23
:1018A000991EA11CB11CF8940E9413052B013C0148
:1018B0006B0149815A81C41AD50AF12CE12C8D8122
:1018C0009E81AF81B885C816D906EA06FB0634F0BA
:1018D00080912E05823011F40E94DB0B29853A8518
:1018E0004B855C85C216D306E406F506B4F0789401
:1018F0002D960FB6F894DEBF0FBECDBFDF91CF910E
:10190000FF90EF90DF90CF90BF90AF909F908F901F
:101910007F906F905F904F90089531E03D8748141D
:1019200059046A047B0408F4BFCF91CFCF92DF92B1
:10193000EF92FF928AE190E0909331058093300519
:1019400085E090E0909333058093320561E08091CB
:101950002F050E94D10380E093E20E94F10B0E94C8
:1019600013056B017C0124E0C21AD108E108F108DB
:101970000E9413056C197D098E099F09603C78400F
:1019800081059105A8F380E392E0FF90EF90DF904E
:10199000CF900C94F10BCF93DF93EC0160E08E813C
:1019A0000E94670261E08E810E94670260E08E8182
:1019B0000E9467028BE891E00197F1F7DF91CF91E8
:1019C0000895CF92DF92EF92FF920F931F93CF93E0
:1019D000DF936C017C0187E0E80EF11CD0E0C0E0F1
:1019E000062F10E0B8010C2E02C0759567950A9479
:1019F000E2F76170F70181917F010E9467022196F1
:101A0000C430D10579F7C601DF91CF911F910F91B5
:101A1000FF90EF90DF90CF900C94CB0CCF92DF92A1
:101A2000EF92FF920F931F93CF93DF93EC01F62E6B
:101A3000642F8C810E9467028D818F3F19F060E0D6
:101A40000E9467020F2D10E08F8584FF25C06E0174
:101A500087E0C80ED11CF12CE12CB8010E2C02C07D
:101A6000759567950A94E2F76170F60181916F01AF
:101A70000E946702FFEFEF1AFF0A88E0E816F10400
:101A800061F7CE01DF91CF911F910F91FF90EF9001
:101A9000DF90CF900C94CB0CB80184E075956795DE
:101AA0008A95E1F7CE010E94E10C6F2DCE01DF9106
:101AB000CF911F910F91FF90EF90DF90CF900C94FA
:101AC000E10C40E0682F85E195E00C940E0DCF937A
:101AD000DF93823029F49091240598609093240537
:101AE000809328051092290580E480932A0580E1DF
:101AF00080932B0580E580932C0561E0809119058A
:101B00000E94D10380911A058F3F19F061E00E9475
:101B1000D10361E080911B050E94D103C5E1D5E0AE
:101B20009E01255135408091240584FD0BC084E041
:101B300090E021962817390744F461E08E810E94D5
:101B4000D103EECF88E090E0F4CF8BE39DE00197E6
:101B5000F1F760E0809119050E94670260E08091D2
:101B60001B050E94670280911A058F3F19F060E003
:101B70000E9467028091240584FD39C063E085E1FD
:101B800095E00E94E10CCBE4D6E4CE010197F1F799
:101B900063E085E195E00E94E10C2197F1F763E0B5
:101BA00085E195E00E94E10C83E592E00197F1F771
:101BB00062E085E195E00E94E10C8091240580625D
:101BC0000E94610D84E0809325058CE00E94610DE8
:101BD00081E00E94610D8BE39FE10197F1F782E0C4
:101BE0008093260586E0DF91CF910C94610D806291
:101BF0000E94610D8BE496E40197F1F78091240532
:101C000080620E94610D83E592E00197F1F7809177
:101C1000240580620E94610DD0CF9091280589171C
:101C200010F08FEF890FE82FF0E0EB5EFA4F848918
:101C300080680C94610D41E00E940E0D81E090E0FF
:101C40000895FB0101900020E9F73197AF01461B91
:101C5000570BDC01ED91FC910280F381E02D09949A
:101C60008F929F92AF92BF920F931F93CF93DF9368
:101C7000CDB7DEB7A1970FB6F894DEBF0FBECDBFCC
:101C800019A2423008F44AE08E010F5D1F4F842EE6
:101C9000912CB12CA12CA50194010E94BD1DE62F11
:101CA000B901CA01EA3004F5E05DD801EE938D0177
:101CB000232B242B252B79F790E080E0109729F037
:101CC000BD0183E693E00E94210EA1960FB6F89421
:101CD000DEBF0FBECDBFDF91CF911F910F91BF909F
:101CE000AF909F908F900895E95CDFCFCF93DF9303
:101CF000BC0183E693E00E94210EEC016DE172E0ED
:101D000083E693E00E94210E8C0F9D1FDF91CF91FF
:101D100008951F93CF93DF9385ED8093BC0080914E
:101D2000CD029091CE02A091CF02B091D002079641
:101D3000A11DB11D23E0B695A795979587952A9586
:101D4000D1F72091BC0024FD03C01092150352C0AE
:101D50004091CD025091CE026091CF027091D0029D
:101D6000452B462B472B69F30097A105B10541F0A0
:101D700025E32A95F1F700000197A109B109E1CF08
:101D80008091CC02C1E0C093CB02882399F1D0911D
:101D9000B8001091BA008091BC008A7B8093BC008F
:101DA00060E082E10E94670260E083E10E946702D6
:101DB00010921503C09317031092160361E082E19D
:101DC0000E94670261E083E10E9467028091B9008E
:101DD0008E7F8093B9008091B9008D7F8093B90088
:101DE00088E48093B80085E48093BC001093BA0027
:101DF000D093B800DF91CF911F9108951F920F9259
:101E00000FB60F9211242F933F934F935F936F93CD
:101E10007F938F939F93AF93BF93EF93FF938091A3
:101E2000510390915203A0915303B0915403892B15
:101E30008A2B8B2BD1F190914C03E0914D03F091C3
:101E40004E038081892780838091510390915203B2
:101E5000A0915303B0915403181619061A061B06D5
:101E60009CF48091510390915203A0915303B0913F
:101E700054030197A109B109809351039093520330
:101E8000A0935303B0935403FF91EF91BF91AF918F
:101E90009F918F917F916F915F914F913F912F9182
:101EA0000F900FBE0F901F9018958091F4010E9423
:101EB000A503EACF1F920F920FB60F9211242F9312
:101EC0003F934F935F936F937F938F939F93AF93C2
:101ED000BF93EF93FF9383E693E00E94AF01FF91DE
:101EE000EF91BF91AF919F918F917F916F915F9192
:101EF0004F913F912F910F900FBE0F901F9018950B
:101F00001F920F920FB60F9211242F938F939F93CE
:101F1000EF93FF93E0917303F09174038081E0915C
:101F20007903F0917A0382FD1BC0908180917C033C
:101F30008F5F8F7320917D03821741F0E0917C03C6
:101F4000F0E0ED59FC4F958F80937C03FF91EF916A
:101F50009F918F912F910F900FBE0F901F9018950A
:101F60008081F4CF1F920F920FB60F9211242F93FE
:101F70003F938F939F93AF93BF938091480390912A
:101F80004903A0914A03B0914B0330913B0323E0F6
:101F9000230F2D3758F50196A11DB11D20933B034A
:101FA0008093480390934903A0934A03B0934B0353
:101FB00080913C0390913D03A0913E03B0913F037B
:101FC0000196A11DB11D80933C0390933D03A09306
:101FD0003E03B0933F03BF91AF919F918F913F918B
:101FE0002F910F900FBE0F901F90189526E8230F8A
:101FF0000296A11DB11DD2CF1F920F920FB60F9264
:1020000011242F933F934F935F936F937F938F93FD
:102010009F93AF93BF93EF93FF938091B900887F15
:10202000803609F44AC0F0F5883209F4A5C018F5E5
:10203000803109F499C0B8F4882309F4F5C08830D8
:1020400009F492C0FF91EF91BF91AF919F918F9151
:102050007F916F915F914F913F912F910F900FBEA4
:102060000F901F901895883109F486C0803251F77F
:102070008093140314C0803409F49BC040F480336F
:10208000B9F38833F9F68093140385ECAEC080353C
:1020900009F483C0883509F494C0883499F60E9405
:1020A000890ED0CF883909F48AC038F5883729F0ED
:1020B00050F4883611F0803729F683E080931503B9
:1020C0001092130355C0883809F479C0803919F08B
:1020D000803809F0B7CF80911303803208F06FC0C9
:1020E000E091130381E08E0F809313038091BB0076
:1020F000F0E0ED50FD4F80833BC0803B39F0D0F4E1
:10210000803A09F477C0883A09F09CCF84E0809344
:1021100015031092F2021092F102F0E0E0E009954E
:102120008091F10281110FC081E08093F102109241
:10213000D10209C0803C09F4A8CF883C09F4A5CF9E
:10214000883B09F07FCFE091F20281E08E0F80930F
:10215000F202F0E0EF52FD4F80818093BB0090913E
:10216000F2028091F10229C080913A038093BB0072
:1021700085EC8093BC0066CF909139038091380341
:10218000981758F5E091390381E08E0F8093390359
:10219000F0E0E85EFC4F8081E9CFE091390381E017
:1021A0008E0F809339038091BB00F0E0E85EFC4F16
:1021B000808390913903809138039817C8F285E89D
:1021C000D8CFE091390381E08E0F8093390380915D
:1021D000BB00F0E0E85EFC4F808380911703811123
:1021E0005ECF81E08093160384EA8093BC00109256
:1021F000150328CF85EC8093BC00109215038091C5
:102200001303803230F4E0911303F0E0ED50FD4F02
:1022100010826091130370E083EF92E0F0E0E0E061
:102220000995109213030ECF1092140338CF1F920A
:102230000F920FB60F9211242F933F934F935F93FA
:102240006F937F938F939F93AF93BF93CF93EF93AE
:10225000FF93E0910204F0910304C0818091040493
:10226000C8238091050490910604019649F080915D
:10227000050490910604019690930604809305044A
:102280008091000481111DC0C1116EC080910504B0
:1022900090910604813A910578F01092090480919A
:1022A00005049091060490930C0480930B0481E044
:1022B00080930A048093000410920604109205048F
:1022C00053C0809100048130A9F4CC2309F44CC0A0
:1022D000E0910A048E0F80930A0480910504909186
:1022E0000604F0E0EE0FFF1FE050FC4F9487838759
:1022F00082E0E0CF80910004823009F04FC0C1112C
:1023000022C0E0910A0481E0E03768F0809309047C
:1023100083E080930004E0910704F0910804309773
:1023200059F20995C9CF8E0F80930A048091050454
:1023300090910604F0E0EE0FFF1FE050FC4F9487F1
:10234000838781E0B7CF8091050490910604813A9C
:10235000910550F083E080930004E0910704F09130
:102360000804309709F0099580912E05813021F4F9
:10237000C11180E00E94E40BFF91EF91CF91BF91DA
:10238000AF919F918F917F916F915F914F913F910D
:102390002F910F900FBE0F901F9018958091000401
:1023A000833011F7C111E0CF87CFEF92FF920F93E7
:1023B0001F93CF93DF93EC01F62F8A01790190E010
:1023C00080E030E0E0E0DE01AE0FB11D2C91222371
:1023D00041F0320F2E9F800D911D11241C92FE138F
:1023E00015C0332399F0532F5695850F911D632FF8
:1023F00070E00E94181EDE01A60FB11D3C93D801AB
:102400003C9131110EC06C9390E080E0EF5FFE17BD
:10241000D0F681E0DF91CF911F910F91FF90EF9067
:102420000895D7013C91332371F380E0F3CFEF920D
:10243000FF920F931F93CF93DF93E3E6F3E01382B2
:10244000128288EE93E0A0E0B0E084839583A683B7
:10245000B78389EF91E09183808385EC90E0958745
:10246000848784EC90E09787868780EC90E0918B5E
:10247000808B81EC90E0938B828B82EC90E0958B4B
:10248000848B86EC90E0978B868B118E128E138E48
:10249000148EE0E0F4E0F0935B05E0935A051182BE
:1024A00081E0848389E290E0938382835098109244
:1024B0002D0510922F05E5E1F5E01382128285E1EA
:1024C00092E0918380838DE084838FEF85838CE01D
:1024D00086838BE087830AE0008719E0118788E014
:1024E00082871386148615861686178681E00E94D9
:1024F000670DCBEFD4E01B861A86198218821E8ADC
:102500001F8A188E198E80E490E09F838E8385E069
:1025100090E09D878C8783E090E09F878E8784E0A2
:10252000E82EF12CF98AE88A82E090E09B8B8A8B76
:1025300061E085E00E94D10361E08E850E94D103B5
:1025400061E088890E94D10361E08A890E94D103F9
:102550001D8A1C8AF986E886EBEEF4E08BE092E0B7
:102560009183808306871787DF91CF911F910F9109
:10257000FF90EF900895CF93DF93CDB7DEB7E99743
:102580000FB6F894DEBF0FBECDBF789484B58260DD
:1025900084BD84B5816084BD85B5826085BD85B507
:1025A000816085BD80916E00816080936E00109285
:1025B0008100809181008260809381008091810000
:1025C0008160809381008091800081608093800091
:1025D0008091B10084608093B1008091B0008160EF
:1025E0008093B00080917A00846080937A0080911B
:1025F0007A00826080937A0080917A008160809373
:102600007A0080917A00806880937A001092C100ED
:10261000E0917303F091740382E08083E0916F0393
:10262000F09170031082E0917103F09172039FECBE
:10263000908310927B03E0917703F091780396E00A
:102640009083E0917503F09176039081906190837F
:10265000E0917503F0917603908198609083E0910A
:102660007503F0917603908190689083E0917503F3
:10267000F091760390819F7D908391E19093010486
:1026800098E09093040426E230E030930304209312
:1026900002043B9810922D058093B0008093B10006
:1026A00084E68093B3008093B4001092B2008091CE
:1026B0000004833011F41092000484E080937000D1
:1026C00082E00E94670D1FB7F8948091400381114A
:1026D00027C0ECEBF0E08491E0EDF0E09491E82F7E
:1026E000F0E0EE0FFF1FE859FF4FA591B491EC9178
:1026F000E92321F461E08AE00E94670261E08AE058
:102700000E94D1038CB580618CBD8CB580648CBD7A
:1027100061E08DE00E94D10361E08BE00E94D10373
:10272000809140038F5F809340031FBF61E08091E1
:10273000F9040E94D10361E08091F9040E946702CC
:102740008091FA048F3F09F453C160E00E94D103E5
:102750002091FA0430E0F901EE58FF4F8491F9011D
:10276000EA53FF4F0491F901EE54FF4F14911111F8
:1027700030C161E08091FA040E94D10360E0809151
:10278000FA040E94670283E090E00197F1F761E0AC
:102790008091FA040E94670262E370E080E090E0BA
:1027A0000E94510640E064E28BEE94E00E94E8064D
:1027B00040E066E28BEE94E00E94E80646E268E4C0
:1027C0008BEE94E00E94E80640E864E58BEE94E02E
:1027D0000E94E80649EA66E58BEE94E00E94E8066E
:1027E00043E068E58BEE94E00E94E80648EE6AE577
:1027F0008BEE94E00E94E80640E46AE28BEE94E0FF
:102800000E94E8064DE362E28BEE94E00E94E80647
:1028100068E28BEE94E00E94CA06982F9370933082
:1028200039F0482F436068E28BEE94E00E94E8069E
:1028300060E272E085E195E00E94210E81E00E9455
:102840000D0E6BE272E085E195E00E94210E81E0C1
:102850000E94610D8BE39FE10197F1F761E088E051
:102860000E94D10360E087E00E94D10360E088E02D
:102870000E94670261E086E00E94D10360E086E08A
:102880000E94670261E080E10E94D10384E392E04C
:102890000E94760E82E00E94670D80E00E940D0E7D
:1028A0006FE472E085E195E00E94210E81E00E94D4
:1028B0000D0E67E672E085E195E00E94210E82E050
:1028C0000E940D0E6BE772E085E195E00E94210EFB
:1028D00083E00E940D0E66E872E085E195E00E94BB
:1028E000210E60E08EE00E94D10360E08FE00E9444
:1028F000D1039E012F5F3F4F39018BEE94E00E9480
:102900009908882309F4B4C08BEE94E00E948306F2
:10291000882309F4ADC006E810E0F801649166234D
:1029200041F083E693E00E94D1010F5F1F4F892B96
:10293000A1F76DE172E083E693E00E94210E3091F1
:10294000EE04309342032091EF04209343039091CF
:10295000F004909344038091F104809345034091E7
:10296000000143130DC030910101231309C02091D0
:102970000201921305C090910301891709F44FC019
:10298000809141038F5F80934103843009F400C13B
:1029900082EB92E00E94760E07E010E061E086E0B4
:1029A0000E94670288EE93E00E94020468EC70E0E7
:1029B00080E090E00E94510680E10E94A50360E063
:1029C00086E00E9467020150110941F718AE1FAA64
:1029D0004FC081110E943E02E12FF0E0EE0FFF1F79
:1029E000E855FF4FA591B491EC910E2309F4C1CEA7
:1029F0004FE062E08BEE94E00E94E80613E062E3B1
:102A000070E080E090E00E94510662E08BEE94E07E
:102A10000E94CA0684FFC6CE115089F7C3CE84E94E
:102A200092E00E94760E80EB94E00E94020461E046
:102A300086E00E9467026CE271E080E090E00E9414
:102A4000510680E10E94A5030E94090668EB7BE025
:102A500080E090E00E9451060E94C10560E086E09F
:102A60000E9467021092410321E030E038AF2FABA3
:102A700060EC72E083E693E00E94210E8FA998AD8E
:102A80004C01092E000CAA08BB0897FFA1C06DE2FB
:102A900083E693E00E94D10166277727CB0168196E
:102AA00079098A099B094AE00E94300E6DE172E0C3
:102AB00083E693E00E94210E80910004833009F0A8
:102AC00069C280910904882309F486C080E4809358
:102AD0005605E0915A05F0915B05838594859093A6
:102AE0005905809358052285209357051092350586
:102AF000109234051092390510923805109237055E
:102B00001092360510923C0510923D0510923E053C
:102B100010923F051092550510925405809156056C
:102B200086FF02C00C94A21D822F8F7B843009F097
:102B3000E2C085859685865891098C35910508F007
:102B4000DAC087859089243009F06DC08197489755
:102B500008F0D1C0818992890897089708F0CBC006
:102B600081E08093560580915E0590915F0590937A
:102B700037058093360580916205909163059093A7
:102B800039058093380580915C0590915D05B8C347
:102B900061E086E00E94670288EE93E00E940204F2
:102BA00068EC70E080E090E00E94510660E086E012
:102BB0000E94670280E10E94A50368EC70E080E05B
:102BC00090E00E9451068AEA92E00E94760EE0CFE1
:102BD0004AE0C501B40168CF1092560580913405D2
:102BE0009091350590935D0580935C058091380543
:102BF00090913905B0E0A0E0809362059093630561
:102C0000A0936405B09365058091360590913705D2
:102C1000B0E0A0E080935E0590935F05A09360050F
:102C2000B093610556CF825491098F9708F063C025
:102C300043E060E280EE91E00E94920B882309F469
:102C40005AC020913C0590913D0560913E058091D0
:102C50003F05462F50E05093390540933805422FE9
:102C6000592F4E3EE7E85E0719F523E030E0309338
:102C700035052093340590E0909337058093360511
:102C800080E290E090935505809354058AE795E0A3
:102C90000E9498008091560580FF33C129E030E002
:102CA000309335052093340580628093560529C101
:102CB0009095291310C030E03093370520933605E6
:102CC000982F909569130CC088E090E0909335059B
:102CD00080933405D5CF5093370540933605F0CF18
:102CE0002AE030E0309335052093340560933805B1
:102CF00080933905C5CF80915705843609F091C07E
:102D00008CEC91E00E94AA0B882309F48AC043E06E
:102D100060E18CEC91E00E94920B882309F481C061
:102D2000F0903C050F2D10913D05BBE0CB2ED12C32
:102D30000230F0E21F07F9F0AEE0CA2ED12C0A3AB9
:102D40002AE51207C1F0FDE0CF2ED12C043532E385
:102D5000130789F0EFE0CE2ED12C033081E0180765
:102D600051F080E1C82ED12C03329BEC190719F0E9
:102D70007CE0C72ED12CF1268F2D82958F70F826FE
:102D8000EF2DEF70FE2E43E260E28CEC91E00E94AA
:102D9000920B882309F445C080913C0590913D0534
:102DA000A0913E05B0913F059C0164E036952795C2
:102DB0006A95E1F730933705209336052A2F30E0E6
:102DC0003093390520933805282F2A272927382FB3
:102DD0003F70F31619F034E030935605FCE0CF163F
:102DE000D10449F430915605306130935605109363
:102DF0003B0500933A052B1729F080915605846016
:102E00008093560580E390E0909355058093540598
:102E1000D0923505C09234058AE397E00E9498006D
:102E200070C080915705803209F0CFC041E06FE05B
:102E300088EB91E00E94920B882309F4C6C0E091D0
:102E40005A05F0915B05E75BFF4F80819181049704
:102E5000059708F0BAC080913C0590913D05A0917E
:102E60003E05B0913F059C012F7133273093370504
:102E70002093360555E0B695A795979587955A9571
:102E8000D1F7292F2370AC01552750933905409372
:102E9000380540915805509159054536544008F081
:102EA0008CC0309166053F5F30936605323018F074
:102EB00031E03093560590FF14C030915605432FF2
:102EC000426040935605409162055091630580959C
:102ED000841719F0366030935605409338055093A7
:102EE00039052150223008F06DC086E190E09093C2
:102EF0003505809334058FE090E0909355058093DD
:102F000054056091380570913905709347036093BB
:102F100046034B01072E000CAA08BB08B7FE18C6D3
:102F20006DE283E693E00E94D10166277727CB010B
:102F3000681979098A099B094AE00E94300E6DE1FF
:102F400072E083E693E00E94210E80914603909107
:102F500047038730910509F0EAC561E086E00E94E9
:102F6000670280EB94E00E9402040E9409066CE272
:102F700071E080E090E00E94510660E086E00E94EF
:102F8000670280E10E94A50380910004833011F460
:102F90001092000468EE73E080E090E00E94510619
:102FA00080E090E0892B09F4A8CC0E949B01882343
:102FB00009F4A3CC0E940000A0CC10926605223038
:102FC00009F493CF84E090E092CF84EA91E00E94EC
:102FD000AA0B882309F448C0809157058A3129F04B
:102FE0008A3219F0803209F03FC090E0BC01615094
:102FF000710977FDBC017595679543E084EA91E01E
:103000000E94920B882381F180913C0590913D05AF
:10301000A0913E05B0913F059C012F773327309357
:1030200039052093380537E0B695A795979587958C
:103030003A95D1F79093370580933605209157053F
:1030400030E0C901019797FDC90195958795909347
:1030500055058093540587E190E090933505809362
:10306000340580EE91E0DACE81E08093620389E757
:1030700093E09093600380935F03109261030E943A
:10308000A700813009F063C0812C912C540110E01D
:1030900090915705809162038917E0F40E94A70080
:1030A000082F0E94A70001110BC0813009F04FC00A
:1030B000880C991CAA1CBB1C689480F81F5FE8CF81
:1030C000013009F044C0811142C0880C991CAA1C2F
:1030D000BB1CF4CF812F90E090935505809354054D
:1030E00080923C0590923D05A0923E05B0923F052E
:1030F000882D8F7390E09093390580933805940163
:10310000B6E036952795BA95E1F72F7133273093BE
:10311000370520933605940122273071232B31F493
:10312000805C9F4F909339058093380580E88093A9
:10313000560593FE03C088E88093560581E190E030
:1031400090933505809334058FEC99E067CEE0913C
:103150005A05F0915B058585968588974D9708F00F
:1031600042C0878590890C970B97E8F583E08093A0
:1031700062038CEB91E09093600380935F03109265
:1031800061030E94A700813071F50E94A7008111A0
:103190002AC0812C912C540110E090915705809108
:1031A0006203891708F07AC00E94A700F82E133036
:1031B000B1F00E94A700082F133021F40E94A7004D
:1031C000081311C091E0F9125FC001110CC0880C06
:1031D000991CAA1CBB1C689480F81F5FDECF0E945C
:1031E000A700F81631F3209157052C3311F0243045
:1031F000B9F4E0915A05F0915B058585968586388E
:10320000910570F0833E910508F492C08E589109A3
:1032100068EB7BE007E010E08236910508F48CC093
:1032200080915705823209F4EBC0843209F018C14D
:1032300088E191E00E94AA0B882309F411C143E0C0
:1032400060E188E191E00E94920B882309F408C1B3
:1032500080913C0590913D05A0913E05B0913F05C0
:10326000492F5A2F6B2F77275093390540933805F4
:103270009927909337058093360580E190E09093ED
:10328000550580935405E9C0F110ADCF013009F028
:10329000AACF880C991CAA1CBB1C9FCF812F90E041
:1032A000909355058093540580923C0590923D057E
:1032B000A0923E05B0923F05282D30E0892D1432B2
:1032C00020F580E880935605309339052093380522
:1032D000892D90E09093370580933605A0FE03C0BA
:1032E00088E880935605153128F080915605806155
:1032F0008093560583E79AE00E94980082E190E06F
:103300009093350580933405FCCD90E89093560555
:1033100097FE03C098E890935605309339052093A3
:1033200038058F7790E09093370580933605E2CF8C
:1033300068E670E106E010E087859089243061F44A
:103340004D97469708F06CCF818992890797089727
:1033500008F066CF81E805CC0E94D70A882309F4DB
:103360005FCF43E06CE184E091E00E94920B882300
:1033700009F456CF80E88093560540913C05509162
:103380003D0560913E0570913F05DB01CA0124E0D7
:10339000B695A795979587952A95D1F79C01909317
:1033A000390580933805DB01CA01E4E1B695A7959C
:1033B00097958795EA95D1F79093370580933605D1
:1033C00084E090E0E0E0F22FFF70EF0FF4E036953C
:1033D0002795FA95E1F70197B1F74E274F705527DA
:1033E00066277727452B462B472B19F084E88093D7
:1033F000560510933505009334058CE190E07DCDA2
:1034000080915805909159058C3E9C4508F079CDE6
:10341000E0915A05F0915B05858596850897079799
:1034200008F06FCDE35BFF4F80819181089707978C
:1034300008F067CD81E08093560580915E059091FC
:103440005F059093370580933605809162059091D2
:103450006305909339058093380585E090E050CF5F
:1034600010915705812F8F7D843419F0163009F0A3
:1034700081C08CE291E00E94AA0B882309F47AC0F3
:103480001630B1F481E28093560580915E059091EB
:103490005F05909337058093360580916205909182
:1034A0006305909339058093380584E190E028CF37
:1034B00043E060E28CE291E00E94920B882309F4E1
:1034C00059C080913D0510913E0500913F05209126
:1034D0003C05209336058093370590915705943627
:1034E00059F543E460E18CE291E00E94920B88235D
:1034F00009F440C080913C0590913D05009510175E
:1035000031F09095981719F094E090935605982F04
:10351000812F909339058093380580E390E0909354
:1035200055058093540585E190E09093350580938F
:1035300034058EEB9AE072CC902F9095191314C03D
:10354000212F30E0309339052093380590E0909397
:1035500037058093360580E290E09093550580937F
:10356000540583E190E0E1CFC80190933805809342
:103570003905F1CF80915705843279F580E491E0E7
:103580000E94AA0B882349F143E060E180E491E0C6
:103590000E94920B882309F110913C0580913D0512
:1035A0008095181719F084E0809356058DE692E017
:1035B0000E949800812F90E0909339058093380500
:1035C000109237051092360580E190E090935505F2
:1035D000809354058DE190E093CE8091570584341B
:1035E000D1F484E591E00E94AA0B8823A1F043E086
:1035F00060E284E591E00E94920B882361F080E80C
:103600008093560580E290E0909355058093540591
:103610008CE190E075CE88E691E00E94AA0B8823A9
:1036200009F45DC0E0915A05F0915B058285843212
:1036300009F055C043E060E188E691E00E94920BFA
:10364000882309F44CC0E0915A05F0915B05EF5ACC
:10365000FF4F808191810297049708F040C080E875
:103660008093560590913C0580913D05292F382F78
:10367000482F42954F708F70A4E036952795AA95F4
:10368000E1F72F70392F3F709FE0942798279227FA
:10369000391719F094E89093560560915805709188
:1036A0005905683F714128F49091560592609093B6
:1036B0005605409336051092370530E1839FC001CF
:1036C0001124822B909339058093380580E190E096
:1036D00090935505809354058AE190E011CE8CE7D4
:1036E00091E00E94AA0B90915705882381F19432B2
:1036F00071F543E060E18CE791E00E94920B882332
:1037000031F1E0915A05F0915B05EF5AFF4F80814E
:10371000918108970797D8F480913C0590913D05D9
:1037200098279F3FA1F490E0909339058093380546
:1037300080E190E0909355058093540589E190E0F5
:10374000909335058093340588ED94E067CB8091A4
:103750005705803709F057C041E068E080E991E003
:103760000E94920B882309F44EC080913C059091F1
:103770003D05A0913E05B0913F05892B8A2B8B2BEF
:1037800009F041C041E16FE180E991E00E94920BB4
:103790008823C9F180903C0590903D05A0903E059E
:1037A000B0903F054FE461E180E991E00E94920B07
:1037B000882349F190913D0580913E0589279827FE
:1037C0008927909339058093380580923C05909223
:1037D0003D05A0923E05B0923F059092370580923C
:1037E0003605B0923B05A0923A058BE190E09093AC
:1037F00035058093340588E390E0909355058093D8
:10380000540580E852CA20915705243108F428C194
:1038100082E3F30111928A95E9F740915A0550919C
:103820005B0573E060E02250330B872F90E0821736
:103830009307BCF4880F991FFA01E80FF91F8385DD
:1038400094858233910508F00BC1F301E80FF91F4D
:10385000A081AF5FA0836817190608F4682F7E5F08
:10386000E4CF1EAA1DAA9E012B5C3F4FAE014A5C0D
:103870005F4FC3010E94D511882309F4F1C082E390
:10388000F30111928A95E9F7209157052250330BE5
:1038900040915A0550915B0574E060E0872F90E0FD
:1038A00082179307BCF4880F991FFA01E80FF91FDC
:1038B000838594858233910508F0D2C0F301E80F27
:1038C000F91FA081AF5FA0836817190608F4682F5D
:1038D0007E5FE4CF1CAA1BAA9E012D5C3F4FAE0168
:1038E0004C5C5F4FC3010E94D511882309F4B8C016
:1038F000809157058695FF24FA94F80ECBA88DA8E1
:10390000CC2029F0811003C03EEFF32EF80E2F2DAE
:1039100030E03093550520935405C901019797FD78
:103920004F9625E0959587952A95E1F789AF811007
:1039300003C0CC2009F494C04CA882E3489E200127
:103940001124AEA8A89E50011124889E4001112484
:10395000C89E6001112483E0282E312C8F2DF0E2C7
:10396000FF1508F480E29DA9992309F465C021E0C0
:1039700030E03093350520933405E12C8201950128
:10398000A401622D0E94F00A882309F469C024E092
:10399000329EF0011124E45BFA4F80913C05909136
:1039A0003D05A0913E05B0913F0580839183A283A0
:1039B000B38330E4230E80EEF80E339499AD931563
:1039C00068F680ED97E00E949800E0915A05F0912A
:1039D0005B054585568582E3849F9001859F300D68
:1039E0001124309341052093400547855089849FD9
:1039F0009001859F300D112430934305209342059B
:103A0000B0924905A092480550924B0540924A0554
:103A100081149104E1F09092450580924405509202
:103A2000470540924605C114D10409F46ACAD092F0
:103A30004B05C0924A0565CAE2E0F0E0F093350517
:103A4000E0933405E12C86019501A5019ACFB0924F
:103A50004505A0924405D0924705C092460551CA3B
:103A600080915705863008F44CCAA0905A05B09052
:103A70005B0511E025EC3DE94CE151E8C82ED12C65
:103A80000AE0812F90E0BC016E5F7F4F6C157D05D1
:103A9000DCF5660F771FF501E60FF71F6385748568
:103AA000880F991FF501E80FF91F83859485069FFC
:103AB000D001079FB00D1124FC01EE0FFF1FEE0F88
:103AC000FF1FEE0FFF1FAE17BF07D0F0089FF001DA
:103AD000099FF00D1124CB0163E0880F991F6A95AF
:103AE000E1F7E817F90770F4E2E063E971E080E0DC
:103AF00091E00E94AD1D9B01AC012E271F5FC1CF3D
:103B0000E0E0F3CFE1E0F1CF20933C0530933D05B9
:103B100040933E0550933F0580E290E09093550519
:103B2000809354051092350510923405EAC9853406
:103B3000910509F029CA60E086E00E9467020E94B0
:103B4000C10515CA70E060E0109247031092460369
:103B5000072E000C880B990BEFC9DB018F939F9305
:103B60000E94FE1DBF91AF91A29F800D911DA39F4A
:103B7000900DB29F900D11240895A1E21A2EAA1B58
:103B8000BB1BFD010DC0AA1FBB1FEE1FFF1FA2170D
:103B9000B307E407F50720F0A21BB30BE40BF50B0A
:103BA000661F771F881F991F1A9469F76095709593
:103BB000809590959B01AC01BD01CF010895052E24
:103BC00097FB1EF400940E94F61D57FD07D00E943B
:103BD000BD1D07FC03D04EF40C94F61D5095409586
:103BE000309521953F4F4F4F5F4F089590958095A9
:103BF000709561957F4F8F4F9F4F08950E94091ECA
:103C0000A59F900DB49F900DA49F800D911D112430
:103C10000895A29FB001B39FC001A39F700D811DA5
:103C20001124911DB29F700D811D1124911D0895C5
:103C3000AA1BBB1B51E107C0AA1FBB1FA617B707D2
:103C400010F0A61BB70B881F991F5A95A9F78095EE
:103C50009095BC01CD01089597FB072E16F40094B2
:103C600007D077FD09D00E94181E07FC05D03EF44E
:103C7000909581959F4F0895709561957F4F089518
:103C8000EE0FFF1F0590F491E02D0994F894FFCFFB
:103C9000E397FCA706002628236810F4012C06F4FD
:103CA000012602806E00960C050026E02070100EA2
:103CB000022A060E020E02004100000013002680B8
:103CC0001180113002900630023002006E000000B8
:103CD0001D002638081C040E022A060E020E0200E1
:103CE000320000001C0026220B220BEE026608EEBA
:103CF00002EE02806E0000001A00269E0002049E62
:103D00000029029E000701006E000000190026F63F
:103D100003BC050802BC050802D401004B000000EA
:103D20001B00261F015D033E023E021F015D038052
:103D30006E00000017002860095802B004580258AD
:103D4000025802002D00000004002604010C0304A8
:103D5000011C0704010C03006E0000000C0025800C
:103D60000DC006B0011005B001B0010082000000D6
:103D70000800260023801130029006300230020035
:103D80006E00960CFF00000000D10131015E011EA3
:103D9000028F016D01810100000000FC0899088379
:103DA00006000000001B0E3101D40AD30A0D0A00E0
:103DB00064C3A9746563746575720064652063618A
:103DC00072746500205363616E6E657A20766F743D
:103DD0007265206361727465205356502120002063
:103DE000204C41204C554D49455245204252494CAA
:103DF0004C414E54452000504F525441494C2041B3
:103E000055544F4D4154495155450020434152545A
:103E1000453A202020004D454E54494F4E4E453ADC
:103E2000202020004F757665727475726520646578
:103E3000206C6120706F72746500416C61726D65F9
:103E40002100436F646520C3A972726F6EC3A9001D
:0A3E5000206574615F736361200058
:107E0000112484B714BE81FFF0D085E080938100F7
:107E100082E08093C00088E18093C10086E0809377
:107E2000C20080E18093C4008EE0C9D0259A86E02C
:107E300020E33CEF91E0309385002093840096BBD3
:107E4000B09BFECF1D9AA8958150A9F7CC24DD24C4
:107E500088248394B5E0AB2EA1E19A2EF3E0BF2EE7
:107E6000A2D0813461F49FD0082FAFD0023811F036
:107E7000013811F484E001C083E08DD089C08234E0
:107E800011F484E103C0853419F485E0A6D080C0E4
:107E9000853579F488D0E82EFF2485D0082F10E0AE
:107EA000102F00270E291F29000F111F8ED06801E7
:107EB0006FC0863521F484E090D080E0DECF843638
:107EC00009F040C070D06FD0082F6DD080E0C81688
:107ED00080E7D80618F4F601B7BEE895C0E0D1E017
:107EE00062D089930C17E1F7F0E0CF16F0E7DF06D8
:107EF00018F0F601B7BEE89568D007B600FCFDCFD4
:107F0000A601A0E0B1E02C9130E011968C91119780
:107F100090E0982F8827822B932B1296FA010C0160
:107F200087BEE89511244E5F5F4FF1E0A038BF0790
:107F300051F7F601A7BEE89507B600FCFDCF97BE46
:107F4000E89526C08437B1F42ED02DD0F82E2BD052
:107F50003CD0F601EF2C8F010F5F1F4F84911BD097
:107F6000EA94F801C1F70894C11CD11CFA94CF0C13
:107F7000D11C0EC0853739F428D08EE10CD085E9AC
:107F80000AD08FE07ACF813511F488E018D01DD067
:107F900080E101D065CF982F8091C00085FFFCCF94
:107FA0009093C60008958091C00087FFFCCF809118
:107FB000C00084FD01C0A8958091C6000895E0E648
:107FC000F0E098E1908380830895EDDF803219F02E
:107FD00088E0F5DFFFCF84E1DECF1F93182FE3DFCA
:107FE0001150E9F7F2DF1F91089580E0E8DFEE27F6
:047FF000FF270994CA
:027FFE00040479
:00000001FF
